:100000000C942B090C9447090C9447090C9447094C
:100010000C9447090C9447090C9447090C94470920
:100020000C9447090C9447090C9425110C948411E5
:100030000C9447090C9447090C9447090C94470900
:100040000C9447090C9447090C9447090C944709F0
:100050000C9447090C9447090C9447090C944709E0
:100060000C9447090C9447090C9447090C944709D0
:100070000C9447090C9447090C9447090C944709C0
:100080000C9447090C9447090C9447090C944709B0
:100090000C9447090C9447090C9447090C944709A0
:1000A0000C9447090C9447090C9447090000820FEF
:1000B000820F820F820F820F820F820F820F820FB8
:1000C000820F820F820F0000820F820F820F820F39
:1000D000DC0F820F00000000820FDC0F820F820F06
:1000E000820F820F4110820F820F820F820F820FC8
:1000F000E00FC710820F820F820F820F820F411014
:10010000820F820F820F820F820F820F0000000089
:10011000820F820F820F820F820F820F820F820F57
:10012000820F820F820F820F820F820F820F820F47
:10013000820F820F820F820F820F820F820F820F37
:10014000820F820F00000000820F820F820F820F49
:10015000820F820F0000820FBA0FBA0F820FBA0F00
:10016000BA0FBA0FBA0F820FBA0FBA0F820F000080
:10017000BA0FBA0FBA0FBA0FBA0FBA0FBA0FBA0F37
:10018000BA0FBA0FBA0FBA0FBA0FBA0FBA0F3C10A4
:100190003C103C103C103C10BA0FBA0F3C103C1005
:1001A0003C103C103C10BA0FBA0F3C103C103C10F5
:1001B0003C10820F00000000820F820F820F820F1E
:1001C000820F820FBA0F820F820F820F820F3C10B4
:1001D000BA0FBA0F820F820F3C10820F3C10820FB1
:1001E0000000820F820F820F820F820F820F820F18
:1001F000820F820F820F820F820F820F0000BA0FD0
:10020000BA0FBA0FBA0FBA0FBA0FBA0FBA0FBA0FA6
:10021000BA0FBA0FBA0F0000BA0FBA0FBA0FBA0F5F
:10022000BA0FBA0FBA0FBA0FBA0FBA0FBA0FBA0F86
:10023000BA0FBA0FBA0F820F820F820F820F820F8E
:10024000BA0FBA0F820F820F820F820F820FBA0F7E
:10025000BA0F820F820F820F820F820F0000000000
:10026000820F820F820F820F820FBA0FBA0F820F96
:10027000820F820F820F820FBA0FBA0F820F820F86
:10028000820F820F820FBA0FBA0F820F820F820F76
:10029000820F820F0000BA0F820F820F820F820F2F
:1002A000820FBA0F0000BA0FBA0FBA0FBA0FBA0F07
:1002B000BA0FBA0FBA0FBA0F820FBA0FBA0F0000F7
:1002C000BA0F820FBA0FBA0FBA0FBA0FBA0FBA0F1E
:1002D000BA0FBA0FBA0F820F820FBA0FBA0FBA0F46
:1002E000BA0FBA0FBA0FBA0FBA0FE40FBA0F820FD4
:1002F000820F820F820FBA0FBA0FBA0FBA0FBA0F5E
:10030000BA0FBA0F00000000BA0F820F820F820FDF
:10031000820FBA0FBA0FBA0FBA0FBA0FBA0FBA0FCD
:10032000BA0FBA0FBA0F820F820F820F820FBA0F65
:10033000BA0FBA0FBA0FBA0FBA0FBA0FBA0F00003E
:10034000BA0F0000820F820F820FBA0F0000000068
:10035000000000000000DE0FE00FF20FF40F0000BD
:10036000000000000000000000000000000000008D
:10037000000002100000000000000000000000006B
:10038000000000000000000000000000DA0FDC0F99
:1003900000000000000000000000EE0FF00FC7108A
:1003A00000000000BA0FFE0F001000000000000067
:1003B00000000000EA0FEC0F9E10000000008A0F02
:1003C000FA0FFC0F0000000000000000E60FE80F2D
:1003D0004110000000000000820FF60FF80F00002F
:1003E000000000000000E20FE40F00000000000029
:1003F00000000000000000000000000000000000FD
:1004000000000000000000000000000000000000EC
:1004100000000000000000000000000000000000DC
:1004200000000000000000000000000000000000CC
:100730000000000000000000000000000000820F28
:10074000820F820F820F820F820F820F820F820F21
:10075000820F820F820F0000820F820F820F820FA2
:10076000DA0F820F00000000820FDA0F820F820F73
:10077000820F820F4110820F820F820F820F820F31
:10078000DE0F9E10820F820F820F820F820F4110A8
:10079000820F820F820F820F820F820F00000000F3
:1007A000820F820F820F820F820F820F820F820FC1
:1007B000820F820F820F820F820F820F820F820FB1
:1007C000820F820F820F820F820F820F820F820FA1
:1007D000820F820FDE0F9E10820F820F820F820F18
:1007E000820F820F0000820FBA0FBA0F820FBA0F6A
:1007F000BA0FBA0FBA0F820FBA0FBA0F820F0000EA
:10080000BA0FBA0FBA0FBA0FBA0FBA0FBA0FBA0FA0
:10081000BA0FBA0FBA0FBA0FBA0FBA0FBA0F3C100D
:100820003C103C103C103C10BA0FBA0F3C103C106E
:100830003C103C103C10BA0FBA0F3C103C103C105E
:100840003C10820F00000000820F820F820F820F87
:10085000820F820FBA0F820F820F820F820F3C101D
:10086000BA0FBA0F820F820F3C10820F3C10820F1A
:100870000000820F820F820F820F820F820F820F81
:10088000820F820F820F820F820F820F0000BA0F39
:10089000BA0FBA0FBA0FBA0FBA0FBA0FBA0FBA0F10
:1008A000BA0FBA0FBA0F0000BA0FBA0FBA0FBA0FC9
:1008B000BA0FBA0FBA0FBA0FBA0FBA0FBA0FBA0FF0
:1008C000BA0FBA0FBA0F820F820F820F820F820FF8
:1008D000BA0FBA0F820F820F820F820F820FBA0FE8
:1008E000BA0F820F820F820F820F820F000000006A
:1008F000820F820F820F820F820FBA0FBA0F820F00
:10090000820F820F820F820FBA0FBA0F820F820FEF
:10091000820F820F820FBA0FBA0F820F820F820FDF
:10092000820F820FE00FBA0F820F820F820F820FA9
:10093000820FBA0F0000BA0FBA0FBA0FBA0FBA0F70
:10094000BA0FBA0FBA0FBA0F820FBA0FBA0F000060
:10095000BA0F820FBA0FBA0FBA0FBA0FBA0FBA0F87
:10096000BA0FBA0FBA0F820F820FBA0FBA0FBA0FAF
:10097000BA0FBA0FBA0FBA0FBA0FBA0FBA0F820F67
:10098000820F820F820FBA0FBA0FBA0FBA0FBA0FC7
:10099000BA0FBA0F00000000BA0F820F820F820F49
:1009A000820FBA0FBA0FBA0FBA0FBA0FBA0FBA0F37
:1009B000BA0FBA0FBA0F820F820F820F820FBA0FCF
:1009C000BA0FBA0FBA0FBA0FBA0FBA0FBA0FC710D1
:1009D000BA0FC710820F820F820FBA0F00000000FB
:1009E0000000000000000000000000000000000007
:1009F00000000000000000000000000000000000F7
:100A000000000000000000000000000000000000E6
:100A100000000000000000000000000000000000D6
:100DC000000000000000000000000000004D282C82
:100DD0004AE0E2E6E44B2A4C4E00E33531E201E31F
:100DE0000000E7015051524FE11D1B061905020397
:100DF0000E10363738E5E0041516170700000B1102
:100E0000080C12342B141A09130A29290D0F181C67
:100E100033312E1E1F202122020323242526272DB5
:100E200000470000460000000048000049000000A4
:100E3000000000000000000000000000001E1F2055
:100E40002122000023242526277F002F3026273546
:100E500000005051524F00000031382F3035000053
:100E6000002E2E2D2D00003A3B3C3D3E44453F4098
:100E70004142436600000000000000000000000046
:100E80000000000000000000000000000000000062
:100E9000001D1B061905000011103637380000042C
:100EA0001607090A00000B0D0E0F330000141A0874
:100EB000151700001C180C121300001E1F20212201
:100EC0000000232425262700000000000000000069
:100ED0000000620000000049000000000000000067
:100EE00000375800000000000000000000595A5B65
:100EF00058000000000000000000005C5D5E57002C
:100F00000000000000000000005F6061560000006B
:100F100000000000000300036754550000000000BB
:100F200000000000000000000000000000000000C1
:100F300000000000000000000000000000000000B1
:100F400000000000000000000000000000000000A1
:100F50000000000000000000000000000000000091
:100F60000000000000000000000000000000000081
:100F70000000000000000000000000000000000071
:100F80000000000000000000000000000000000061
:100F90000000000000000000000000000000000051
:100FA0000000000000000000000000000000000041
:100FB0000000000000000000000000000000000031
:100FC0000000000000000000000000000000000021
:100FD0000000000000000000000000000000000011
:100FE0000000000000000000000000000000000001
:100FF00000000000000000000000000000000000F1
:1010000000000000000000000000000000000000E0
:1010100000000000000000000000000000000000D0
:1010200000000000000000000000000000000000C0
:1010300000000000000000000000000000000000B0
:1010400000000000000000000000000000000000A0
:101050000000000000000000000000000000000090
:101060000000000000000000000000000000000080
:101070000000000000000000000000000000000070
:101080000000000000000000000000000000000060
:101090000000000000000000000000000000000050
:1010A0000000000000000000000000000000000040
:1010B0000000000000000000000000000000000030
:1010C0000000000000000000000000000000000020
:1010D0000000000000000000000000000000000010
:1010E0000000000000000000000000000000000000
:1010F00000000000000000000000000000000000F0
:1011000000000000000000000000000000000000DF
:1011100000000000000100005A1112000200006CE3
:10112000113B002100007E110900220000A7113FA1
:101130000021010097110900220100E611190003A6
:101140000000FF110401030904031218020309043B
:101150001D123601C10601C1060012010002000085
:101160000020501D286000010102000109023B001F
:10117000020100C03209040000010301010009213D
:1011800011010001223F000705810308000A09043C
:1011900001000103000000092111010001221900D2
:1011A0000705820308000A05010906A101750195DA
:1011B00008050719E029E715002501810295017549
:1011C0000881039505750105081901290591029506
:1011D0000175039103950675081500256805071923
:1011E0000029688100C0050C0901A10185031501D2
:1011F000269C0219012A9C02751095018100C004E9
:10120000030904180375006E007300700065006325
:10121000006900660069006500640000003603454F
:1012200000720067006F0044006F007800200065C6
:1012300000720067006F006E006F006D0069006350
:101240000020006B006500790062006F0061007291
:1012500000640000000011241FBECFEFDAE0DEBF03
:10126000CDBF11E0A0E0B1E0E0E5F6E202C00590FC
:101270000D92AA31B107D9F712E0AAE1B1E001C09D
:101280001D92AD3CB107E1F7D7D00C9426130C9416
:10129000000020911A01281760F030E0281B310966
:1012A000F901EE0FFF1FE20FF31FE757FD4F80819B
:1012B000089580E0089520911A01281760F030E029
:1012C000281B3109F901EE0FFF1FE20FF31FE7574B
:1012D000FD4F8281089580E00895E1E0F1E021E092
:1012E00030E0922F41914423B1F4F901E050FF4FD7
:1012F00031E0308340911A014F5F40931A0150E072
:10130000FA01EE0FFF1FE40FF51FE757FD4F808333
:101310002183628306C02F5F3F4F2431310509F7D7
:1013200090E0892F0895CF93DF9360911A0191E0A7
:10133000C82FD0E0C050DF4F36C0292F30E0F90170
:10134000EE0FFF1FE20FF31FE757FD4F2181281714
:1013500049F518C09A012F5F3F4FF901EE0FFF1FAB
:10136000E20FF31FE757FD4F2081DA01AA0FBB1FE1
:10137000A40FB51FA757BD4F2C93218111962C9315
:1013800011979F5F492F50E0961721F7FA01EE0F52
:10139000FF1FE40FF51FE757FD4F108211821882DF
:1013A000692F61509F5F691740F660931A01DF91C2
:1013B000CF9108953091C7029091880220918702C1
:1013C0008091CA02ECE12E9FF001112428EA332318
:1013D00069F0929F90011124E20FF31F90E0880FB3
:1013E000991FE80FF91FE45CF84F0CC0929F900121
:1013F0001124E20FF31F90E0880F991FE80FF91FE7
:10140000E455FF4F85919491FC01009709F00995EF
:1014100080911A01282F30E0F901EE0FFF1FE20F33
:10142000F31FE757FD4F9281923029F490913202D9
:10143000992309F078CF08952AD18CE090E0909319
:1014400089008093880090938B0080938A0090930A
:101450008D0080938C00259A269A279AA3D6B9D618
:101460008823E9F38FE790E09093890080938800C8
:101470002FE732E440E1215030404040E1F700C026
:10148000000090938B0080938A002FE732E440E1C4
:10149000215030404040E1F700C0000090938D00A3
:1014A00080938C002FE732E440E1215030404040EF
:1014B000E1F700C0000025982698279890938900AE
:1014C0008093880090938B0080938A0090938D0086
:1014D00080938C0080911401909115012091160148
:1014E0003091170130931501209314019093170147
:1014F00080931601D8D010923102A2C01092C80277
:1015000095C00D2F10E0E0911601F09117012C2FDE
:1015100030E0220F331FC90173E0880F991F7A95BD
:10152000E1F7821B930B800F911FE80FF91F408199
:101530004093C702E0911401F09115012C2F30E087
:10154000220F331FC901B3E0880F991FBA95E1F745
:10155000821B930B800F911FE80FF91F80818093EE
:10156000C502481709F45DC04423C1F080E091DE54
:10157000809388022C2F30E0220F331FF90153E0B3
:10158000EE0FFF1F5A95E1F7E21BF30BE00FF11F7F
:10159000ED5CFD4F80831092C60226C08C2F90E038
:1015A000880F991FFC01A3E0EE0FFF1FAA95E1F73A
:1015B000E81BF90BE00FF11FED5CFD4F808180937C
:1015C00088028C2F90E0880F991FFC0123E0EE0F1A
:1015D000FF1F2A95E1F7E81BF90BE00FF11FE55E0D
:1015E000FE4F80818093C602C0938702D093CA02C7
:1015F0001092C902DFDE2091C8028091310290E092
:10160000880F991FFC0173E0EE0FFF1F7A95E1F739
:10161000E81BF90BE20FF11DE55EFE4F8091C6025B
:1016200080838091C8028F5F8093C802D091C802E6
:10163000C0913102DE3008F464CFCF5FC093310235
:1016400080913102863008F459CFC6D5F9D78FE1A1
:101650009EE40197F1F700C000008091260280FF10
:1016600002C0259A01C025988091260281FF02C000
:10167000269A01C026988091260282FF02C0279AEE
:1016800001C02798809126028091260223CFC3D0E3
:10169000882329F41AD0882321F082E0089581E07C
:1016A000089580E00895CF93DF93EC017DD18823E6
:1016B00031F4CE0135D0882321F082E003C081E0EF
:1016C00001C080E0DF91CF910895CF9363D380E490
:1016D00082D3C82F882301F580E07DD380E87BD3B7
:1016E0008FEF79D370D356D380E475D3C82F882376
:1016F00099F48CE070D380E86ED38FEF6CD363D312
:1017000049D380E468D3C82F882331F484E163D3BC
:101710008FEF61D38FEF5FD356D38C2FCF91089586
:101720008F929F92AF92BF92CF92DF92FF920F93D0
:101730001F93CF93DF930F92CDB7DEB76C01C5DF58
:10174000F82E882371F0F60186E010821182128251
:10175000138214821582168281503E968823A9F73F
:101760004CC000E010E081E0A82EB12C13D380E43F
:1017700032D382E130D3C501002E02C0880F991FF9
:101780000A94E2F7809527D31ED304D380E423D3B1
:1017900083E121D3FFD281E41ED3CE0101963BD356
:1017A00012D3698170E020E030E085E090E0D6015E
:1017B000A00FB11FFD01E20FF31F4B01082E02C065
:1017C000959487940A94E2F741E080FC40E04083DE
:1017D0000197225F3F4F4FEF8F3F940759F70F5FFD
:1017E0001F4F0730110509F0C1CFD4D280E4F3D2E6
:1017F00082E1F1D28FEFEFD2E6D28F2D0F90DF9101
:10180000CF911F910F91FF90DF90CF90BF90AF903D
:101810009F908F900895E1E6F0E080E88083108249
:1018200056985E9824982C9825982698279889EAA7
:101830008093800089E080938100A3D23F9885E067
:101840008A95F1F70000579885E08A95F1F7000036
:10185000549885E08A95F1F70000559885E08A95BF
:10186000F1F700006E9885E08A95F1F70000479A3D
:1018700085E08A95F1F700005F9A85E08A95F1F797
:1018800000005C9A85E08A95F1F700005D9A85E09A
:101890008A95F1F70000769A85E08A95F1F70000C5
:1018A000879885E08A95F1F70000869885E08A950B
:1018B000F1F70000859885E08A95F1F7000084989B
:1018C00085E08A95F1F70000819885E08A95F1F727
:1018D0000000809885E08A95F1F70000209885E067
:1018E0008A95F1F70000219885E08A95F1F70000CC
:1018F000229885E08A95F1F70000239885E08A9583
:10190000F1F70000529885E08A95F1F700005398AE
:1019100085E08A95F1F700003E9885E08A95F1F719
:1019200000008F9A85E08A95F1F700008E9A85E095
:101930008A95F1F700008D9A85E08A95F1F700000D
:101940008C9A85E08A95F1F70000899A85E08A955E
:10195000F1F70000889A85E08A95F1F70000289851
:1019600085E08A95F1F70000299885E08A95F1F7DE
:1019700000002A9885E08A95F1F700002B9885E011
:101980008A95F1F700005A9885E08A95F1F70000F2
:101990005B9885E08A95F1F70000469885E08A9586
:1019A000F1F7000080E00895FC01209A85E08A9517
:1019B000F1F700008FB18095881F8827881F8783E3
:1019C00081E07E9980E0858B81E07D9980E083A332
:1019D00081E07C9980E081AB81E0799980E087AFFC
:1019E000DF01AA5BBF4F81E0789980E017968C9366
:1019F0001797209885E08A95F1F70000219A85E0F5
:101A00008A95F1F700008FB18095881F8827881F7D
:101A1000808781E07E9980E0868B81E07D9980E0FF
:101A200084A381E07C9980E082ABDF01A05CBF4FA2
:101A300081E0799980E08C93DF01AA5BBF4F81E060
:101A4000789980E018968C931897219885E08A956C
:101A5000F1F70000229A85E08A95F1F700008FB136
:101A60008095881F8827881F818781E07E9980E084
:101A7000878B81E07D9980E085A381E07C9980E07F
:101A800083ABDF01AF5BBF4F81E0799980E08C933E
:101A9000DF01AA5BBF4F81E0789980E019968C93B3
:101AA0001997229885E08A95F1F70000239A85E03E
:101AB0008A95F1F700008FB18095881F8827881FCD
:101AC000828781E07E9980E0808F81E07D9980E04F
:101AD00086A381E07C9980E084ABDF01AE5BBF4FE1
:101AE00081E0799980E08C93DF01AA5BBF4F81E0B0
:101AF000789980E01A968C931A97239885E08A95B6
:101B0000F1F70000529A85E08A95F1F700008FB155
:101B10008095881F8827881F838781E07E9980E0D1
:101B2000818F81E07D9980E087A381E07C9980E0CE
:101B300085ABDF01AD5BBF4F81E0799980E08C938D
:101B4000DF01AA5BBF4F81E0789980E01B968C9300
:101B50001B97529885E08A95F1F70000539A85E02B
:101B60008A95F1F700008FB18095881F8827881F1C
:101B7000848781E07E9980E0828F81E07D9980E09A
:101B800080A781E07C9980E086ABDF01AC5BBF4F32
:101B900081E0799980E08C93DF01AA5BBF4F81E0FF
:101BA000789980E01C968C931C97539885E08A95D1
:101BB000F1F700003E9A85E08A95F1F700008FB1B9
:101BC0008095881F8827881F858781E07E9980E01F
:101BD000838F81E07D9980E081A781E07C9980E01E
:101BE00087ABDF01AB5BBF4F81E0799980E08C93DD
:101BF000EA5BFF4F81E0789980E085873E9885E039
:101C00008A95F1F7000080E00895662309F473C017
:101C1000633E61F1643E40F4613EC1F0623EF0F427
:101C2000603E09F04DC00AC0653E81F1653E30F16D
:101C3000663EA1F1673E09F043C038C090912D0285
:101C4000882311F0916039C09E7F37C090912D029A
:101C5000882311F0926031C09D7F2FC090912D029A
:101C6000882311F0946029C09B7F27C090912D029A
:101C7000882311F0986021C0977F1FC090912D029A
:101C8000882311F0906119C09F7E17C090912D029A
:101C9000882311F0906211C09F7D0FC090912D029A
:101CA000882311F0906409C09F7B07C090912D029A
:101CB000882311F0906801C09F7790932D020895BA
:101CC000E7E2F2E020E030E09081882339F09923C8
:101CD00061F4295D3D4FF90160830895961729F459
:101CE000295D3D4FF901108208952F5F3F4F3196D6
:101CF0002630310549F70895833EF1F0843E38F4EB
:101D0000813E91F0823EA0F4803E51F509C0853EAF
:101D1000D9F0853EA8F0863ED9F0873E09F51CC073
:101D200090912D0290FD29C090912D0291FD25C02A
:101D300090912D0292FD21C090912D0293FD1DC026
:101D400090912D0294FD19C090912D0295FD15C022
:101D500090912D0296FD11C090912D0297FD0DC01E
:101D600090E0E92FF0E0E95DFD4F2081281739F080
:101D70009F5F9630B1F780E0089581E0089581E09B
:101D80000895E9EBF0E080818C7F808388E4809384
:101D9000B800089584EA8093BC008091BC0087FF5E
:101DA000FCCF8091B900887F883049F08091B900DC
:101DB000887F803131F08091B900887F089580E07C
:101DC000089580E0089584E98093BC008091BC0070
:101DD00084FDFCCF08958093BB0084E88093BC0011
:101DE0008091BC0087FFFCCF8091B900887F88314B
:101DF00071F08091B900887F883249F08091B900F4
:101E0000887F803431F08091B900887F089580E028
:101E1000089580E0089524EC2093BC002091BC003C
:101E200027FFFCCF2091BB00FC0120838091B900EB
:101E3000887F803521F08091B900887F089580E007
:101E40000895CF93DF93C7E1D2E0C80FD11D8881F9
:101E50006ADA1882DF91CF9108951F93CF93DF93B1
:101E6000E091880294E5E99FF001112440918702F6
:101E700050E0440F551F9A0163E0220F331F6A950B
:101E8000E1F7241B350BE20FF31F9091CA02E90F13
:101E9000F11DE453F24F1491C82FD0E0C95EDD4F1D
:101EA000888141DA80E007DA8150823018F480E0DE
:101EB000F0D939DA812F60E010DA8883DF91CF9191
:101EC0001F910895E091880284E5E89FF0011124B4
:101ED0008091870290E09C01220F331FC901A3E08B
:101EE000880F991FAA95E1F7821B930BE80FF91F42
:101EF0008091CA02E80FF11DE453F24F6491809182
:101F0000C70283CE8091C602882319F481E08093B2
:101F10003202D8CFCF93DF930F92CDB7DEB7E091E7
:101F2000880284E5E89FF00111248091870290E007
:101F30009C01220F331FC90143E0880F991F4A9566
:101F4000E1F7821B930BE80FF91F8091CA02E80F9B
:101F5000F11DE453F24F6491862F6983CDDE6981D0
:101F6000882311F080E001C081E04FDE0F90DF9107
:101F7000CF91089581E08093C6028091C9028F5F5E
:101F80008093C90286D9809388029091CA022091D9
:101F9000870230E0220F331FF90163E0EE0FFF1FCD
:101FA0006A95E1F7E21BF30BE90FF11DED5CFD4FC4
:101FB000808300CA81E051CF81E043CF82E04DCFE2
:101FC00082E03FCF83E049CF83E03BCF84E045CF41
:101FD00084E037CF85E041CF85E033CF86E03DCF49
:101FE00086E02FCF87E039CF87E02BCF88E035CF51
:101FF00088E027CF89E031CF89E023CF8AE02DCF59
:102000008AE01FCFF89481E08093E00080E2809323
:10201000D800E9ECF0E010828FE19EE40197F1F73F
:1020200000C000001DBA109268001CBC10BE1FBA90
:1020300010927A0010926E0010926F001092710050
:10204000109272001082ECEBF0E0108214B817B816
:102050001AB81DB810BA108215B818B81BB81EB837
:1020600011BA0C94003F089581E063E8CEDDB4D04E
:1020700080E063E8CADDB0C08091C70261EEC5DDD3
:1020800041CFE091880284E5E89FF001112480911E
:10209000870290E09C01220F331FC90153E0880F93
:1020A000991F5A95E1F7821B930BE80FF91F809156
:1020B000CA02E80FF11DE453F24F64918091C70208
:1020C000882329F4909122029150909322029DDD61
:1020D00080912202813041F58091C702882321F14D
:1020E00081EE0ADE8093230285EE06DE80932402D1
:1020F00080E061EE8ADD80E065EE87DD81E069E306
:1021000084DD6AD080E069E380DD66D080912302BF
:10211000882319F081E061EE78DD80912402882324
:1021200019F081E065EE71DD8091C702882329F006
:10213000809122028F5F809322020895CF93E091D5
:10214000880284E5E89FF00111248091870290E0E5
:102150009C01220F331FC90173E0880F991F7A95E4
:10216000E1F7821B930BE80FF91F8091CA02E80F79
:10217000F11DE453F24FC49180912502D4D88C2FE5
:1021800060E0ABD8809325026FDFCF9108958091F6
:102190002502C9D81092250267CF8091E80080FF00
:1021A000FCCF089581E08093D70080EA8093D80027
:1021B00082E189BD09B400FEFDCF80E98093D8009B
:1021C0001092E00010922E028CE08093E20078944E
:1021D000089580912E02089580912E02882389F11E
:1021E0008FB7F89491E09093E9009091E4009E5CA1
:1021F00021E03091E80035FD0EC08FBF80912E02A6
:102200008823F9F08091E4008917E9F08FB7F894FA
:102210002093E900EECF90912D029093F10010925F
:10222000F100E7E2F2E096E021912093F100915075
:10223000D9F79AE39093E80010922F028FBF80E0C5
:1022400008958FEF08958FEF08951F920F920FB6A4
:102250000F9211242F938F939F93EF93FF9380916D
:10226000E1001092E10083FF0FC01092E90091E0BD
:102270009093EB001092EC0092E29093ED0098E0C6
:102280009093F00010922E0282FF34C080912E02B3
:10229000882381F120911801222361F1809130027D
:1022A0008F5F8093300290E083709070009711F5FB
:1022B00081E08093E9008091E80085FF1BC0809158
:1022C0002F028F5F80932F028217A1F410922F02AA
:1022D00080912D028093F1001092F100E7E2F2E08C
:1022E00080E091919093F1008F5F8630D1F78AE37F
:1022F0008093E800FF91EF919F918F912F910F9024
:102300000FBE0F901F9018951F920F920FB60F924D
:102310001124EF92FF920F931F932F933F934F93AC
:102320005F936F937F938F939F93AF93BF93EF933D
:10233000FF93CF93DF930F92CDB7DEB71092E900F2
:102340008091E80083FF32C12091F1003091F100CB
:10235000E090F100FF244091F100942F80E0E82A02
:10236000F92A0091F10010E04091F100942F80E0F3
:10237000082B192B6091F100A091F10082EF80935E
:10238000E800363009F051C049E024E131E1F901BB
:10239000859194918E159F0539F4F90132968591B6
:1023A00094918017910729F0295F3F4F415079F7A9
:1023B000FDC0F901349685919491AC012A5F3F4F9D
:1023C000F901249170E09A2F80E0682B792B6F3F00
:1023D000710519F010F06FEF70E0621708F4262F06
:1023E000AEEF8091E80090E0BC01657070706115FF
:1023F0007105B9F382FDDDC0322F213208F030E2E1
:10240000CA01632F06C0FC010196E491E093F1003C
:1024100061506623C1F7430F511D231BA093E800B1
:102420002223F9F63032E9F2C4C0353049F48EEF98
:102430008093E800B2DE8E2D80688093E300B9C0FF
:10244000393049F5222309F06CC0E0922E028EEF5C
:102450008093E80041E083E591E101C0C901409328
:10246000E9009C012F5F3F4FFC0154915093EB001A
:10247000552361F0F90124912093EC009C012D5F1C
:102480003F4F0296FC0184918093ED004F5F4530F1
:1024900029F78EE141C0383039F4203809F041C0C5
:1024A0007CDE80912E0260C03323A9F4298375DE7F
:1024B0002981223851F40093E9009091EB0081E0EA
:1024C00095FF80E01092E90001C080E08093F10068
:1024D0001092F10067C0313011F0333011F5223025
:1024E00001F5E114F104E9F4402F4F77842F815076
:1024F0008430B8F48EEF8093E8004093E9003330E5
:1025000009F454C089E18093EB0081E090E002C0BF
:10251000880F991F4A95E2F78093EA001092EA002B
:1025200048C00115110509F041C0213A01F53130CB
:1025300081F433DE80912D028093F1001092F1003E
:10254000E7E2F2E086E091919093F1008150D9F7B3
:1025500029C0323021F421DE8091180105C03330CA
:1025600029F51BDE809119018093F1001BC02132F7
:10257000E9F4393061F48091E80082FFFCCF80916A
:10258000F100809326028BEF8093E8000BC03A3075
:1025900029F4F092180110922F0204C03B3031F45C
:1025A000E09219018EEF8093E80003C081E28093EE
:1025B000EB000F90DF91CF91FF91EF91BF91AF9121
:1025C0009F918F917F916F915F914F913F912F914B
:1025D0001F910F91FF90EF900F900FBE0F901F90E3
:1025E000189590912E02992339F19FB7F89422E023
:1025F0002093E9002091E4002E5C32E04091E80055
:1026000045FD0EC09FBF90912E029923A9F0909195
:10261000E400921799F09FB7F8943093E900EECF59
:102620008093F1006093F1007093F1008AE380934E
:10263000E8009FBF80E008958FEF08958FEF089521
:102640006091CB027091CC0283E0CBCFF894FFCFA6
:102650000100000000000000000000000000000079
:0A266000000000006F01C3017D01BE
:00000001FF
